:100000000C94B2000C944B050C948A050C94CF0010
:100010000C94CF000C94CF000C94CF000C94CF0024
:100020000C94CF000C9422080C94CF000C94D606AC
:100030000C94CF000C9482060C94CF000C94CF004B
:100040000C94CF000C94CF000C94CF000C94CF00F4
:100050000C94CF0090089908A308A70860087108BD
:10006000AD086E616E00696E660000407A10F35A4A
:1000700000A0724E18090010A5D4E80000E87648E8
:10008000170000E40B54020000CA9A3B000000E194
:10009000F505000080969800000040420F00000027
:1000A000A08601000000102700000000E803000007
:1000B00000006400000000000A00000000000100D1
:1000C000000000002C76D888DC674F0823DFC1DFF2
:1000D000AE59E1B1B796E5E3E453C63AE6519976F5
:1000E00096E8E6C28426EB898C9B62ED407C6FFC2F
:1000F000EFBC9C9F40F2BAA56FA5F490055A2AF771
:100100005C936B6CF9676DC11BFCE0E40D47FEF579
:1001100020E6B500D0ED902E0300943577050080E1
:10012000841E080000204E0A000000C80C33333340
:10013000330F986E12831141EF8D2114893BE655E0
:1001400016CFFEE6DB18D1844B381BF77C1D901DC3
:10015000A4BBE424203284725E228100C9F124EC25
:10016000A1E53D2711241FBECFE5D4E0DEBFCDBF02
:1001700011E0A0E6B0E0E4EAF8E202C005900D92DA
:10018000A432B107D9F721E0A4E2B1E001C01D9289
:10019000A838B207E1F70E941E0C0C9450140C947E
:1001A000000008950F931F93CF93DF93EC018B0111
:1001B0008B812A8130E02F5F3F4F482F50E024177A
:1001C000350764F08F5F8B8390E0BC01660F771F6B
:1001D000888199810E948411998388838A812881EA
:1001E0009981E22FF92FE80FF11DE80FF11D11831E
:1001F00000838A818F5F8A83DF91CF911F910F9156
:1002000008950F931F93CF93DF93DC0112962C91E7
:10021000129730E080E0482F082E000C550B421753
:100220005307B4F5ED91FC911197EA01CC0FDD1F56
:10023000CE0FDF1F088119810617170719F48F3FAA
:1002400019F426C08F5FE7CFC901019748175907F6
:1002500051F021503048220F331FE20FF31F8081ED
:100260009181998388831296EC911297F0E0E15086
:10027000F048EE0FFF1F8D919C911197E80FF91F29
:100280001182108212968C911297815012968C9343
:10029000DF91CF911F910F910895FC01A081B18151
:1002A000ED91FC91119722813381E0E0F0E03383FE
:1002B00022830D90BC91A02D2D913C913183208300
:1002C00060E070E00E94010180E090E00895CF932B
:1002D000DF9384E090E00E945710EC01892B69F4D1
:1002E0001F9283E18F9389E790E09F938F930E9401
:1002F000A9130F900F900F900F901B821A821982F2
:100300001882CE01DF91CF910895CF93DF93EC0156
:100310008B81882321F0888199810E94EC10CE0185
:10032000DF91CF910C94EC100E940A0480E895E2D2
:100330000E9464060E9418050E94D8020E941308B9
:100340000E94670190937701809376010895CF937F
:10035000DF93CDB7DEB727970FB6F894DEBF0FBE99
:10036000CDBF5C836D83EC81FD81309749F027968A
:100370000FB6F894DEBF0FBECDBFDF91CF910994C9
:1003800027960FB6F894DEBF0FBECDBFDF91CF9199
:100390000895EF92FF920F931F93CF93DF93EC0199
:1003A0000E94E30A8C01892B09F44EC0CE010E9401
:1003B000FF0AF801938382830E94F008EC0189818F
:1003C000813079F48B818F938A818F9385E890E0D7
:1003D0009F938F930E94A9130F900F900F900F90EF
:1003E0001EC08230E1F460E070E08A819B810E944F
:1003F000D8097C0164E770E0FC01808191810E9452
:100400005D13892B31F48EE990E00E94BF130E94A6
:10041000F604C7010E94B10AC7010E94E50BF8016A
:10042000828193810E94EC10C8010E94EC108A81A5
:100430009B810E94EC10CE01DF91CF911F910F9113
:10044000FF90EF900C94EC10DF91CF911F910F91E2
:10045000FF90EF900895CF93DF9380917601909174
:100460007701FC0122812223B9F00E944D01EC01A9
:100470008B818F938A818F938EEA90E09F938F93E5
:100480000E94A9130F900F900F900F908A819B816B
:10049000DF91CF910C94C901DF91CF910895CF9353
:1004A000DF9300D0CDB7DEB720917E0130917F0180
:1004B000CE0101962115310519F48858914002C0EA
:1004C000821B930B9A83898389819A810F900F9065
:1004D000DF91CF9108950F931F93CF93DF93CDB703
:1004E000DEB727970FB6F894DEBF0FBECDBF0BEB7C
:1004F00010E00E944C03882379F10E94DF022983D7
:100500003A835C836D83423019F40E94A70117C0BF
:10051000411115C089819A81909301008093000058
:10052000EC81FD810995909303008093020060E0C7
:1005300070E080917601909177010E94D2000E9434
:100540004F029F938F931F930F930E94A9130F90B5
:100550000F900F900F90CDCF27960FB6F894DEBF77
:100560000FBECDBFDF91CF911F910F9108950E94D3
:100570006B020C942B020C94B70283E090E00E9473
:100580005710FC01009781F41F9281E18F9389E756
:1005900090E09F938F930E94A9130F900F900F905C
:1005A0000F9080E090E008951082128211820895E9
:1005B0000E94BD0290937901809378010895AF92D3
:1005C000BF92CF92DF92FF920F931F93CF93DF934F
:1005D000CDB7DEB727970FB6F894DEBF0FBECDBFFD
:1005E000E0917801F091790180818823E1F0018028
:1005F000F281E02DA580B680C080D180F280038199
:100600001481CF010E94EC10E0917801F091790102
:10061000B282A182808181508083DA82C982FB828A
:100620001D830C8307C0FE01319687E0DF011D9218
:100630008A95E9F729813A814B815C816D817E81C0
:100640008F8190E027960FB6F894DEBF0FBECDBF26
:10065000DF91CF911F910F91FF90DF90CF90BF90CE
:10066000AF900895CF93DF93E0917801F0917901F5
:1006700081819281009741F4809178019091790174
:10068000DF91CF910C94EC10FC01D581C6810E94C2
:10069000EC108D2F9C2FEECFE0917801F091790135
:1006A00080810895EF92FF920F931F93CF93DF9372
:1006B000CDB7DEB727970FB6F894DEBF0FBECDBF1C
:1006C00029833A834B835C836D8387E090E00E94AB
:1006D00057107C01892B69F41F9282E18F9389E77F
:1006E00090E09F938F930E94A9130F900F900F900B
:1006F0000F9089819A81F701918380838B81828316
:100700008C819D819483838316830583C7012796FB
:100710000FB6F894DEBF0FBECDBFDF91CF911F9112
:100720000F91FF90EF900895BF92CF92DF92EF92DA
:10073000FF920F931F93CF93DF93CDB7DEB7279729
:100740000FB6F894DEBF0FBECDBFD22E2983B32FD4
:100750003A834B835C836D837E838F832091780102
:1007600030917901F901E180F28000E010E02D2D57
:100770003B2F0E945203E114F10439F4E091780117
:10078000F0917901928381830EC0F7012581368132
:100790002115310511F07901F8CF96838583E09119
:1007A0007801F091790180818F5F808327960FB661
:1007B000F894DEBF0FBECDBFDF91CF911F910F9197
:1007C000FF90EF90DF90CF90BF9008950C94EC10C5
:1007D000CF93DF93CDB7DEB727970FB6F894DEBF80
:1007E0000FBECDBF5C836D83EC81FD81309749F0F6
:1007F00027960FB6F894DEBF0FBECDBFDF91CF9125
:10080000099427960FB6F894DEBF0FBECDBFDF91D7
:10081000CF910895E4E2F1E086E3848383E3808767
:1008200080E384878FEF8583818785871682128690
:100830001686178213861786089524E0829FC001CA
:100840001124FC01EC5DFE4F8281811103C0E08127
:10085000F0E06283089524E0829FC0011124FC012E
:10086000EC5DFE4F8281811103C0E081F0E0618385
:10087000089524E0829FC0011124FC01EC5DFE4F2D
:10088000E081F0E0228181E090E001C0880F6A956C
:10089000EAF7822B8283089524E0829FC00111240D
:1008A000FC01EC5DFE4FE081F0E0228181E090E010
:1008B00001C0880F6A95EAF78095822382830895A4
:1008C00024E0829FC0011124FC01EC5DFE4FE08119
:1008D000F0E0228181E090E001C0880F6A95EAF79C
:1008E00082278283089524E0829FC0011124FC01A5
:1008F000EC5DFE4FE081F0E0218181E090E001C0FD
:10090000880F6A95EAF7822B8183089524E0829FFD
:10091000C0011124FC01EC5DFE4FE081F0E021817B
:1009200081E090E001C0880F6A95EAF78095822304
:100930008183089524E0829FC0011124FC01EC5DB5
:10094000FE4F218130E0062E02C0359527950A948E
:10095000E2F720FF0BC0E081F0E0808190E002C070
:10096000959587956A95E2F78170089581E00895DD
:1009700024E0829FC0011124FC01EC5DFE4F21E0C8
:1009800030E001C0220F6A95EAF720958181282383
:100990002183089524E0829FC0011124FC01EC5DB5
:1009A000FE4F21E030E001C0220F6A95EAF7818115
:1009B000282B21830895FC0160830895FC01408168
:1009C00021E030E001C0220F6A95EAF7242B208352
:1009D0000895FC01408121E030E001C0220F6A95BA
:1009E000EAF72095242320830895089598B381E0A1
:1009F000892788BB80E090E00895CF93DF93C82FCC
:100A0000D62F0E9486046D2F8C2FDF91CF910C94EE
:100A10003904CF93DF93C82FD62F0E94FD046D2F8A
:100A20008C2F0E949A0491E08927DF91CF9108953D
:100A300060E083E00E94FD0461E083E00E947304B3
:100A400080EC8BBF8AE085BF08950C947304CF932C
:100A5000DF93C82FD62F0E9473046D2F8C2FDF9148
:100A6000CF910C943904CF93DF93C82FD62F0E94D7
:100A700073046D2F8C2FDF91CF910C944C04CF9386
:100A8000DF93C82FD62F0E9473046D2F8C2FDF9118
:100A9000CF910C9460041F920F920FB60F92112405
:100AA0002F933F934F935F936F937F938F939F9376
:100AB000AF93BF93EF93FF93CF93DF93CDB7DEB7A1
:100AC0002797DEBFCDBF88E0282F86EF94E0582F10
:100AD0009D838C8330E042E06D817E818F810E9416
:100AE000940327960FB6F894DEBF0FBECDBFDF91FB
:100AF000CF91FF91EF91BF91AF919F918F917F9196
:100B00006F915F914F913F912F910F900FBE0F907A
:100B10001F9018951F920F920FB60F9211242F93CA
:100B20003F934F935F936F937F938F939F93AF9375
:100B3000BF93EF93FF93CF93DF93CDB7DEB72797A4
:100B4000DEBFCDBF89E0282F86EF94E0582F9D832C
:100B50008C8330E042E06D817E818F810E9494031E
:100B600027960FB6F894DEBF0FBECDBFDF91CF91B1
:100B7000FF91EF91BF91AF919F918F917F916F9175
:100B80005F914F913F912F910F900FBE0F901F904B
:100B900018955D9BFECF8CB980E090E0089580E0D1
:100BA00090E00895CF92DF92EF92FF920F931F9300
:100BB000CF93DF9380913501882309F44DC0809154
:100BC0007A0190917B010E94E907F82E61E070E0C4
:100BD00090E00E943B10D82FD92EC82E082F192F35
:100BE000C0E0CF15C9F080917A0190917B010E94FD
:100BF000A007CF5FF80181938F018A3069F08D30B3
:100C000059F0E0917A01F0917B0187818111E9CF60
:100C100010923501109234018091350181508093FA
:100C20003501EC2EF12CC70101960E9457108C0162
:100C3000DC01ED2FFD2D8E2F8C198C1718F481916E
:100C40008D93F9CFF801EE0DFF1D10828D2F9D2D94
:100C50000E94EC10C80102C080E090E0DF91CF91CB
:100C60001F910F91FF90EF90DF90CF9008959B011F
:100C7000AC0184E0220F331F441F551F8A95D1F722
:100C800060E074E284EF90E00E94DC0FBA01A901F9
:100C90004150510961097109BB27A72F962F852F54
:100CA00080BD49B98AB188618AB980B5866880BD3E
:100CB00088E98AB97894E2E8F1E080E690E09383ED
:100CC000828391838083089560E875E280E090E0FC
:100CD0000E9437060E943D0790937B0180937A0122
:100CE00026E331E0FC01358324833383228331837F
:100CF000208320E426830E94FE07E4E3F1E01182D2
:100D0000108208951F920F920FB60F9211240F9028
:100D10000FBE0F901F901895CF93DF93CDB7DEB71E
:100D200027970FB6F894DEBF0FBECDBF82E0282F05
:100D300082ED95E0582F9D838C8330E040E06D81FB
:100D40007E818F810E94940327960FB6F894DEBFB0
:100D50000FBECDBFDF91CF910895CF93DF930E9457
:100D6000D205D82FC92F9F938F938FEE90E09F933A
:100D70008F930E94A9130F900F900F900F908D2FBB
:100D80009C2FDF91CF910C94EC1080917A0190917F
:100D90007B010C94A00780917A0190917B010C94C7
:100DA000E907E4E3F1E01182108208951F920F92A7
:100DB0000FB60F9211242F933F934F935F936F932E
:100DC0007F938F939F93AF93BF93CF93EF93FF93B3
:100DD000CCB180913401882331F08C2F90E00E94B7
:100DE0003113892BA9F5CA3011F0CD3041F580912E
:100DF0007A0190917B01FC012781211103C00E949F
:100E0000D10626C0223081F40E94FE071F9282E2A2
:100E10008F9389E790E09F938F930E94A9130F907F
:100E20000F900F900F9014C081E080933401809157
:100E300035018F5F809335010E948C0602C01092AD
:100E400034016C2F80917A0190917B010E945607AA
:100E5000FF91EF91CF91BF91AF919F918F917F9132
:100E60006F915F914F913F912F910F900FBE0F9017
:100E70001F90189580913501089588E090E00E94B8
:100E80005710FC01009781F41F9280E18F9389E74E
:100E900090E09F938F930E94A9130F900F900F9053
:100EA0000F9080E090E0089517820895FC018781FB
:100EB000823071F41F9281E28F9389E790E09F93D3
:100EC0008F930E94A9130F900F900F900F90089589
:100ED000A281B3816C9382819381019693838283F3
:100EE000248135814681B901640F711D86179707EA
:100EF00011F43383228381E08783228133818081CF
:100F000091812817390711F482E0878308950F93A0
:100F10001F93CF93DF93EC018B018E81882349F0DF
:100F20008F81823031F0F8016081CE010E94560736
:100F3000F4CF80E090E0DF91CF911F910F91089561
:100F4000FC01A081B1818C9190E29C932081318140
:100F50002F5F3F4F31832083448155819681BA01B1
:100F6000690F711D2617370711F4518340834081A3
:100F70005181228133814217530711F4178208955A
:100F800091E097830895EF92FF920F931F93CF9371
:100F9000DF937C01EB018C01A8014E195F092E81C2
:100FA00030E04217530750F48F81882339F0CE0187
:100FB0000E94A007F80181938F01EECF842FDF916B
:100FC000CF911F910F91FF90EF900895FC018781C1
:100FD0000895FC018781882379F0428153818081C3
:100FE00091819A01281B390B8417950710F4822FE1
:100FF00008958681820F089580E00895CF93DF934E
:10100000EC014E8150E060E070E08C819D810E9497
:1010100056138C819D819B838A83998388831F8249
:10102000DF91CF91089565E083E590E00E94DB04B5
:1010300060EF82E590E00E94DB0460E089E590E0EB
:101040000C94DE041F920F920FB60F9211242F936F
:101050003F934F935F936F937F938F939F93AF9340
:10106000BF93EF93FF9360E682E590E00E94DB047C
:1010700063E081E00E943F05FF91EF91BF91AF9146
:101080009F918F917F916F915F914F913F912F91A0
:101090000F900FBE0F901F901895FF920F931F9304
:1010A000CF93DF93042F10E00730110508F07EC0C6
:1010B000D72FF62EC82FF801E65DFF4F0C94FE0FD8
:1010C000823221F445E022E081E06EC08B3721F4CA
:1010D00040E022E082E068C044E020E080E091E06F
:1010E00067C0082F10E0C8010E942913892B09F05E
:1010F00040C0005311090A301105D8F1CA3311F468
:1011000042E038C0CC3211F443E034C0CD37B9F0FE
:10111000CC23F9F0CD30E9F0CA30D9F045E042C037
:101120008232B9F090E00E94391340E0892BB9F186
:1011300039C0882321F08D3011F08A3011F441E05C
:1011400019C041E02FC08232A1F042E02BC08232B0
:1011500011F445E00FC043E025C0082F10E0C8019E
:101160000E942913892B29F4005311090A30110513
:1011700018F446E021E017C0C23261F481E0F812B1
:1011800003C045E022E010C082E0F8120AC045E04A
:1011900021E00AC0CA3311F0CC3219F446E020E055
:1011A00002C046E022E08F2D9D2F02C022E0CB013D
:1011B000642F722FDF91CF911F910F91FF900895AF
:1011C0008D3561F028F4823249F08B3529F406C060
:1011D0008B3721F08D3711F080E0089581E008957C
:1011E0005F926F927F928F929F92AF92BF92CF92B7
:1011F000DF92EF92FF920F931F93CF93DF9300D074
:10120000CDB7DEB78C0184E0882E712CF8010190F7
:101210000020E9F73197E01BF10B6E2ECF019927E3
:1012200001960E9457107C0152E0D12C912C512C38
:10123000C12C482D6D2D772D5801AC0CB11CF5013A
:1012400080810E944D08862E792E572FD82EF501C9
:10125000B0808B2D5A8379830E94E0085A81752FC4
:1012600081119394772359F0713029F4F701E50D3A
:10127000F11DB0825394C3946C14D8F601C0D12CE4
:1012800090FC52E05A830E94E30A8C015A815D7FF0
:1012900029F40E94EC1080E090E014C0A52CB12C41
:1012A000C5010E945710F80193838283A501415024
:1012B0005109B7010E944D13F801D182C7010E9464
:1012C000EC10C8010F900F90DF91CF911F910F91FB
:1012D000FF90EF90DF90CF90BF90AF909F908F9056
:1012E0007F906F905F900895DF92EF92FF920F933F
:1012F0001F93CF93DF9300D0CDB7DEB7282FD52E25
:101300007B01443069F028F4423031F1433031F050
:101310003FC0453039F0463029F13AC08232D1F52C
:1013200045E017C0082F10E0C80129834A830E94B6
:10133000291329814A81892B29F5005311090A3083
:10134000110500F12A3311F442E009C02C3211F5E5
:1013500043E072E084E020C08232E1F445E072E0D4
:1013600085E01AC0082F10E0C80129834A830E9433
:10137000291329814A81892B29F4005311090A3044
:10138000110518F446E071E006C0223219F445E078
:1013900072E001C07D2D8E2D642F9F2D0F900F9038
:1013A000DF91CF911F910F91FF90EF90DF90089503
:1013B0006F927F929F92AF92BF92CF92DF92EF9205
:1013C000FF920F931F93CF93DF9300D0CDB7DEB77B
:1013D0005C016B0189EC90E00E94BF130E94EF0A50
:1013E0003C0188E090E00E945710D3018D939C93BC
:1013F00088E090E00E945710F3019383828344E0D9
:1014000070E0F50101900020E9F73197EE2EEA181F
:1014100052E084E0912CF12C00E0F501E90DF11D82
:1014200010811C3209F03FC0D301ED91FC9111975E
:10143000E00FF11D10821296ED91FC911397EF0DC4
:10144000F11D108212966D917C911397A6018D91DA
:101450009C910E94760B6C0144E070E0F301808166
:10146000918149837A830E94EC10D30112968D9169
:101470009C9113970E94EC1088E090E00E94571016
:10148000F3019183808388E090E00E945710D3019C
:1014900013969C938E93129784E052E0F12C00E017
:1014A00049817A812BC0111125C0D301ED91FC91A6
:1014B0001197E00FF11D10821296ED91FC91139798
:1014C000EF0DF11D108212966D917C911397A6017C
:1014D0008D919C910E94760B6C01F301808191812A
:1014E0000E94EC10D30112968D919C9113970E944B
:1014F000EC1023C01D30C9F21A30B9F2682F812FC9
:101500000E947409AB01792F513099F4D3018430D2
:1015100039F4ED91FC91E00FF11D10830F5F09C0CC
:101520001296ED91FC911397EF0DF11D1083F3943A
:1015300085E09394E91408F070CFC3010E94EC1089
:10154000C6010F900F90DF91CF911F910F91FF90E7
:10155000EF90DF90CF90BF90AF909F907F906F9073
:101560000895EF92FF920F931F93CF93DF93EC01B7
:101570000EED10E088EEE82E80E0F82E2097E1F0E6
:1015800089818F9388818F931F930F930E94A91352
:101590008B818F938A818F93FF92EF920E94A91380
:1015A0000C80DD81C02D8DB79EB708960FB6F894DC
:1015B0009EBF0FBE8DBFE2CFDF91CF911F910F91E4
:1015C000FF90EF90089584E090E00E9457100097FC
:1015D00029F0FC011082138212821182089584E0A6
:1015E00090E00E945710009721F480E090E00E9464
:1015F0005014FC0111821082138212820895FF920E
:101600000F931F93CF93DF938C01C0E0F801EC0F91
:10161000F11D8081CF5F8111F9CF8C2F90E00E9466
:101620005710F82ED92F902FAF2DBD2FF8018E2FE8
:10163000891B8C1718F481918D93F9CFC8010E94F2
:10164000EC108F2D9D2FDF91CF911F910F91FF9067
:101650000895AF92BF92CF92DF92EF92FF920F93D5
:101660001F93CF93DF935C017B016A0186E090E0DA
:101670000E9457108C01892B41F484EF90E00E9466
:10168000BF1380E090E00E945014E5010990002013
:10169000E9F7CA19D0E0CE010E945710F8019183F2
:1016A0008083AE01B5010E944D13E701099000202F
:1016B000E9F7CE19D0E0CE010E945710F8019383CC
:1016C0008283AE01B7010E944D13F801D582C48216
:1016D000C801DF91CF911F910F91FF90EF90DF90A4
:1016E000CF90BF90AF9008950C94290B0F931F9348
:1016F000CF93DF934115510541F440E050E0DF9175
:10170000CF911F910F910C94290B8A01F80124812C
:1017100035812115310511F08901F8CFEA0140E04A
:1017200050E00E94290BF80195838483CE01DF915C
:10173000CF911F910F9108950F931F93CF93DF9334
:101740008C01EB01209759F0B801888199810E94A2
:101750005D13892B39F00C80DD81C02DF3CF80E043
:1017600090E001C0CE01DF91CF911F910F910895BC
:10177000EF92FF920F931F93CF93DF937B01BA01F8
:101780000E949C0B8C010097C1F0FC018281938127
:101790000E94EC10F70101900020E9F73197EF016A
:1017A000CE19DF09CE0101960E945710F8019383EC
:1017B0008283AE01B7010E944D13C801DF91CF9122
:1017C0001F910F91FF90EF900895EF92FF920F936A
:1017D0001F93CF93DF93009751F18C01FC01C481DB
:1017E000D58115821482209779F0EC80FD80888164
:1017F00099810E94EC108A819B810E94EC10CE019D
:101800000E94EC10E701EFCFF801808191810E94E6
:10181000EC10F801828193810E94EC10C801DF91E5
:10182000CF911F910F91FF90EF900C94EC10DF91EE
:10183000CF911F910F91FF90EF9008950E94940116
:1018400081E191E00E94BF136FEF81E00E942B04C1
:1018500067E083E00E94B80467E083E00E94090526
:10186000C82F66E083E00E940905811102C0CC23E5
:1018700041F08BE191E00E94BF1367E083E00E949A
:10188000CA0464E081E00E943F0567E081E00E94B5
:1018900027052FEF84E39CE0215080409040E1F742
:1018A00000C0000067E081E00E9433052FEF84E371
:1018B0009CE0215080409040E1F700C00000CCCF78
:1018C000A3E1B0E0E6E6FCE00C9404106C014B01EF
:1018D0002A01FC0117821682838181FF43C3AE0176
:1018E0004F5F5F4F3A01F6019381F40193FD8591BB
:1018F00093FF81914F01882309F430C3853239F475
:1019000093FD859193FF81914F01853239F4B601A2
:1019100090E00E94711352012501E5CF10E0F12CF7
:1019200020E02032A0F48B3269F030F4803259F09C
:10193000833269F420612CC08D3239F0803339F460
:10194000216026C02260246023C0286021C027FDBA
:1019500027C030ED380F3A3078F426FF06C0FAE0A1
:101960001F9F300D1124132F13C04AE0F49E300D39
:101970001124F32E20620CC08E3221F426FDEEC21B
:10198000206406C08C3611F4206802C0883641F409
:10199000F40193FD859193FF81914F018111C1CF96
:1019A0009BEB980F933018F42061805E06C09BE992
:1019B000980F933008F071C12F7E26FF16E02F7329
:1019C000322E853619F42064322E08C0863621F472
:1019D000F22FF0683F2E02C01111115037FE07C0E0
:1019E0001C3350F4EE24E394E10E27E00BC01830D2
:1019F00038F027E017E005C027E04CE3E42E02C0F2
:101A0000212FE12C520144E0A40EB11CF2016081AF
:101A10007181828193810E2DA3010E944E122C01AF
:101A2000098100FF02C003FF07C031FC08C032FE7D
:101A300009C030E2232E07C02DE2222E04C09BE213
:101A4000292E01C0212C802F8C7019F0211068C222
:101A5000A8C237FE0FC0E40C04FF04C08A818133A2
:101A600009F4EA941E1474F5F8E0FE1578F588E0A0
:101A7000E82E2CC036FC2AC0812F90E084159505F5
:101A80009CF02CEF42162FEF520674F0432D406865
:101A9000342E0AC0E2E0F0E0EC0FFD1FE10FF11D73
:101AA0008081803319F411501111F4CF37FE0EC02C
:101AB000EE24E394E10E812F90E0481659062CF4B1
:101AC000141904C0EE24E39401C010E037FE06C0F0
:101AD0001414150434F4C201019605C085E090E0A9
:101AE00002C081E090E021100196112331F0212FF6
:101AF00030E02F5F3F4F820F931F2F2D30E0821772
:101B0000930714F4F81A01C0F12C832D897049F45D
:101B1000FF2039F0B60180E290E00E947113FA9440
:101B2000F7CF222029F0B601822D90E00E94711398
:101B300033FC09C0FF2039F0B60180E390E00E9439
:101B40007113FA94F7CF37FE5AC0942D852D57FEA6
:101B500002C090E080E0292E382E20E030E0A20183
:101B60004E1951095D874C87A201421953095F87BD
:101B70004E87612F70E044275527461B570B598B22
:101B8000488B5FEF2516350649F4B6018EE290E0EA
:101B90002A8B3B8B0E9471133B892A894214530480
:101BA0006CF04C855D854215530544F4EE85FF8548
:101BB000E20FF31FE60DF71D818101C080E351E0C4
:101BC000251A31082F5F3F4F488959892416350659
:101BD0004CF0B60190E02A8B3B8B0E9471132A894E
:101BE0003B89CFCF2414350439F49A81963318F405
:101BF000953311F404FF81E3B60190E04BC08A8174
:101C0000813309F00F7EB60190E00E94711311112B
:101C100005C034FC18C085E690E017C0B6018EE21E
:101C200090E00E94711382E0EE24E394E80EF30149
:101C3000E80FF11D8081B60190E00E9471131150F0
:101C40008E2D91F7E6CF85E490E0B6010E947113E6
:101C500057FC05C04114510439F404FF05C05194E8
:101C6000419451088DE201C08BE2B60190E00E94E0
:101C7000711380E39AE0491651042CF08F5F5AE00B
:101C8000451A5108F7CFB60190E00E947113B601D2
:101C9000C201C0960E94711357C1833631F0833759
:101CA00079F0833509F058C021C05201E2E0AE0E50
:101CB000B11CF2018081898301E010E0230114C08E
:101CC0005201F2E0AF0EB11CF2014080518026FFBC
:101CD00003C0612F70E002C06FEF7FEFC2012A8B5B
:101CE0000E9466138C012A892F7715C05201F2E0F9
:101CF000AF0EB11CF2014080518026FF03C0612F5E
:101D000070E002C06FEF7FEFC2012A8B0E94421386
:101D10008C012A892068322E23FD1AC08F2D90E075
:101D200008171907A8F4B60180E290E00E94711329
:101D3000FA94F4CFF20137FC859137FE81912F019F
:101D4000B60190E00E947113F110FA94015011094C
:101D50000115110579F7F8C0843611F0893659F567
:101D6000520127FF09C0F4E0AF0EB11CF2016081FF
:101D70007181828193810AC0F2E0AF0EB11CF20141
:101D800060817181072E000C880B990B2F76322E03
:101D900097FF09C090958095709561957F4F8F4F03
:101DA0009F4F2068322E2AE030E0A3010E94EF13FB
:101DB000E82EE6183FC0022F853721F40F7E2AE077
:101DC00030E01DC0097F8F3691F018F4883559F046
:101DD000C5C0803719F0883711F0C0C0006104FF1A
:101DE00009C0046007C024FF08C0066006C028E0E0
:101DF00030E005C020E130E002C020E132E05201D5
:101E000007FF09C0F4E0AF0EB11CF20160817181DF
:101E10008281938108C0F2E0AF0EB11CF2016081B3
:101E2000718180E090E0A3010E94EF13E82EE61894
:101E30000F77302E36FE0BC0332D3E7FE11650F467
:101E400034FE0AC032FC08C0332D3E7E05C00E2D84
:101E5000332D03C00E2D01C0012F34FF0CC0FE0135
:101E6000EE0DF11D8081803311F4397E08C032FF00
:101E700005C00E5F04C0832F867809F00F5F33FD25
:101E800013C030FF06C01E2D0F1518F41F0D101BB8
:101E90000F2D0F1568F4B60180E290E03B8B0E9495
:101EA00071130F5F3B89F5CF0F1510F4F01A01C0C5
:101EB000F12C34FF12C0B60180E390E03B8B0E940E
:101EC00071133B8932FF17C031FD03C088E790E0F2
:101ED00002C088E590E0B6010CC0832F867859F0E7
:101EE00031FF02C08BE201C080E237FD8DE2B60116
:101EF00090E00E947113E11638F4B60180E390E09F
:101F00000E9471131150F7CFEA94F301EE0DF11D09
:101F10008081B60190E00E947113E110F5CF14C0EA
:101F2000F4E0FF1558F584E0F81A33FE1EC02110C6
:101F300026C003FF2AC002E610E0F32DF0713F2E09
:101F4000F8018491811124C0FF2009F4E5CCB60189
:101F500080E290E00E947113FA94F6CFF601868138
:101F6000978126C08FEF9FEF23C0B60180E290E0FB
:101F70000E947113FA94F110F8CFD9CFF12CB60169
:101F8000822D90E00E947113D4CF06E610E0D5CFE9
:101F900031108052B60190E00E9471130F5F1F4F05
:101FA000CFCF23E02F1510F483E0BECFF12CC1CFAB
:101FB0006396E2E10C942010A1E21A2EAA1BBB1B2F
:101FC000FD010DC0AA1FBB1FEE1FFF1FA217B30705
:101FD000E407F50720F0A21BB30BE40BF50B661F1B
:101FE000771F881F991F1A9469F7609570958095DF
:101FF00090959B01AC01BD01CF010895EE0FFF1F2D
:102000000590F491E02D09942F923F924F925F92A8
:102010006F927F928F929F92AF92BF92CF92DF92F8
:10202000EF92FF920F931F93CF93DF93CDB7DEB75D
:10203000CA1BDB0B0FB6F894DEBF0FBECDBF0994F1
:102040002A88398848885F846E847D848C849B8448
:10205000AA84B984C884DF80EE80FD800C811B8156
:10206000AA81B981CE0FD11D0FB6F894DEBF0FBE85
:10207000CDBFED0108950F931F93CF93DF93869FFC
:102080008001879F100D969F100D1124C8010E949A
:102090005710EC01009729F0A80160E070E00E9461
:1020A0005613CE01DF91CF911F910F910895CF93D9
:1020B000DF938230910510F482E090E0E09180019E
:1020C000F091810120E030E0C0E0D0E0309711F1E4
:1020D0004081518148175907C0F04817590761F4EA
:1020E00082819381209719F09B838A832BC09093E0
:1020F00081018093800126C02115310519F0421716
:10210000530718F49A01BE01DF01EF010280F38149
:10211000E02DDCCF2115310509F1281B390B2430C6
:10212000310590F412968D919C911397611571056C
:1021300021F0FB019383828304C0909381018093FB
:102140008001FD01329644C0FD01E20FF31F81932F
:102150009193225031092D933C933AC020917E01F6
:1021600030917F01232B41F4209170003091710058
:1021700030937F0120937E0120916E0030916F009B
:102180002115310541F42DB73EB7409172005091B1
:102190007300241B350BE0917E01F0917F01E21763
:1021A000F307A0F42E1B3F0B2817390778F0AC017A
:1021B0004E5F5F4F2417350748F04E0F5F1F509357
:1021C0007F0140937E018193919302C0E0E0F0E0B3
:1021D000CF01DF91CF9108950F931F93CF93DF939A
:1021E000009709F48CC0FC0132971382128200918F
:1021F0008001109181010115110581F42081318147
:10220000820F931F20917E0130917F01281739079B
:1022100079F5F0937F01E0937E0171C0D80140E031
:1022200050E0AE17BF0750F412962D913C911397D2
:10223000AD012115310509F1D901F3CF9D01DA0175
:102240003383228360817181860F971F82179307E2
:1022500069F4EC0128813981260F371F2E5F3F4F2B
:10226000318320838A819B8193838283452B29F448
:10227000F0938101E093800142C01396FC93EE93AA
:102280001297ED01499159919E01240F351FE217D4
:10229000F30771F480819181840F951F0296119646
:1022A0009C938E938281938113969C938E93129725
:1022B000E0E0F0E0D80112968D919C911397009781
:1022C00019F0F8018C01F6CF8D919C9198012E5F49
:1022D0003F4F820F931F20917E0130917F0128177D
:1022E000390769F4309729F4109281011092800126
:1022F00002C01382128210937F0100937E01DF914E
:10230000CF911F910F910895A0E0B0E0EAE8F1E1CC
:102310000C940810EC01009721F4CB010E94571097
:10232000B8C0FC01E60FF71F9C0122503109E217EB
:10233000F30708F4ACC0D9010D911C911197061751
:102340001707B0F00530110508F49FC0C8010497C5
:102350008617970708F499C002501109061B170B3E
:10236000019311936D937C93CF010E94EC108DC06B
:102370005B01A01AB10A4C01800E911EA091800150
:10238000B091810140E050E0E12CF12C109709F46C
:102390004AC0A815B905D1F56D907C9011976301DD
:1023A00082E0C80ED11CCA14DB0480F1A3014A19D3
:1023B0005B096A0182E0C80ED11C1296BC9012978C
:1023C0001396AC91B5E0CB16D10440F0B282A38352
:1023D00051834083D9016D937C930AC00E5F1F4FD8
:1023E000C301800F911FF90191838083EB2DFA2F98
:1023F000E114F10431F0D7011396FC93EE93129798
:1024000044C0F0938101E09380013FC08D919C9185
:1024100011974817590708F4AC017D0112960D90E9
:10242000BC91A02DB3CF80917E0190917F01881542
:102430009905E1F446175707C8F480916E00909112
:102440006F00009741F48DB79EB740917200509194
:102450007300841B950BE817F907C8F4F0937F010C
:10246000E0937E01F901718360830FC0CB010E946C
:1024700057107C01009759F0A801BE010E944D132E
:10248000CE010E94EC10C70104C0CE0102C080E062
:1024900090E0CDB7DEB7EEE00C942410283008F0C1
:1024A00027E03327DA01990F311D87FD91600096EF
:1024B0006105710539F432602E5F3D9330E32A9552
:1024C000E1F708959F3F30F080387105610509F00C
:1024D0003C5F3C5F3D93913008F08068911DDF9335
:1024E000CF931F930F93FF92EF92192F987F96959A
:1024F000E92F96959695E90FFF27EC53FF4F992703
:102500003327EE24FF24A701E701059008940794E0
:1025100028F4360FE71EF81E491F511D660F771F5E
:10252000881F991F0694A1F70590079428F4E70ED9
:10253000F81E491F561FC11D770F881F991F661F60
:102540000694A1F70590079428F4F80E491F561F2A
:10255000C71FD11D880F991F661F771F0694A1F70B
:102560000590079420F4490F561FC71FD81F990FD5
:10257000661F771F881F0694A9F78491109517701E
:1025800041F0D695C79557954795F794E7941A95D6
:10259000C1F7EAE6F0E068941590159135916591E0
:1025A000959105907FE27395E118F10A430B560B64
:1025B000C90BD009C0F7E10CF11E431F561FC91FFC
:1025C000D01D7EF4703311F48A95E6CFE894015063
:1025D00030F0080F0AF40027021708F4202F239583
:1025E000022F7A3328F079E37D932A95E9F710C01A
:1025F0007D932A9589F60694979567953795179553
:102600001794E118F10A430B560BC90BD00998F047
:1026100023957E9173957A3308F070E37C932013B1
:10262000B8F77E9170617D9330F0839571E37D936F
:1026300070E32A95E1F71124EF90FF900F911F911D
:10264000CF91DF91992787FD9095089585FD0C9492
:102650004D14806291110C944D1481568A51D8F713
:10266000089591110C944D148F3711F08052D0F7CA
:10267000089591110C944D14803219F089508550B1
:10268000C8F70895FC010590615070400110D8F71B
:10269000809590958E0F9F1F0895FB01DC0102C06D
:1026A00001900D9241505040D8F70895DC0101C0CF
:1026B0006D9341505040E0F70895FB01DC018D918E
:1026C000019080190110D9F3990B0895FC01615014
:1026D000704001900110D8F7809590958E0F9F1F44
:1026E00008950F931F93CF93DF93FB01238121FD67
:1026F00003C08FEF9FEF28C022FF16C0468157818D
:10270000248135814217530744F4A081B1819D0192
:102710002F5F3F4F318320838C93268137812F5F3A
:102720003F4F3783268310C0EB01092F182F0084F9
:10273000F185E02D0995892BE1F68E819F81019627
:102740009F838E83812F902FDF91CF911F910F91C7
:102750000895A0E0B0E0EFEAF3E10C941410AE01AC
:102760004B5F5F4FFA0161917191AF0180918401DC
:10277000909185010E94600CE2E00C9430100F9360
:102780001F93CF93DF93E0918401F0918501238122
:1027900021FF1BC08C01D0E0C0E0F80181918F01C6
:1027A0006091840170918501DB011896ED91FC9197
:1027B0001997882331F00995892B79F3DFEFCFEF53
:1027C000ECCF8AE00995892B19F08FEF9FEF02C0BB
:1027D0008D2F9C2FDF91CF911F910F910895FA01BA
:1027E000AA27283051F1203181F1E8946F936E7F50
:1027F0006E5F7F4F8F4F9F4FAF4FB1E03ED0B4E041
:102800003CD0670F781F891F9A1FA11D680F791F81
:102810008A1F911DA11D6A0F711D811D911DA11D92
:1028200020D009F468943F912AE0269F11243019A2
:10283000305D3193DEF6CF010895462F4770405D3D
:102840004193B3E00FD0C9F7F6CF462F4F70405DEC
:102850004A3318F0495D31FD4052419302D0A9F747
:10286000EACFB4E0A6959795879577956795BA9541
:10287000C9F700976105710508959B01AC010A2E07
:1028800006945795479537952795BA95C9F7620FDE
:10289000731F841F951FA01D0895992788270895E9
:0428A000F894FFCFDA
:1028A4000000000300000000C905CF05000000007F
:1028B400880120006B776700006572723A2025302A
:1028C40032780D0A006A736F6E206F7574707574B8
:1028D40020737472696E673A2025730D0A0057726B
:1028E4006974696E67204750494F2E200D006D733F
:1028F400675F6F75742025730D0A00667265652025
:102904006D656D2025750D0A006A736F6E5F7061C9
:10291400727365725F6F626A6563743A0D004B652A
:10292400793A2025730D0A0056616C75653A2025A5
:10293400730D0A004572726F722063726561746967
:102944006E672061206E6577206F626A6563742EFE
:102954000041746D65676131360D00616374697699
:04296400650D0000FD
:00000001FF
